{
  "_format": "hh-sol-artifact-1",
  "contractName": "Portfolio",
  "sourceName": "contracts/Portfolio.sol",
  "abi": [
    {
      "inputs": [
        {
          "internalType": "string",
          "name": "_name",
          "type": "string"
        },
        {
          "internalType": "string",
          "name": "_symbol",
          "type": "string"
        },
        {
          "internalType": "address",
          "name": "_curator",
          "type": "address"
        },
        {
          "internalType": "address",
          "name": "_kyoso",
          "type": "address"
        },
        {
          "internalType": "address[]",
          "name": "_tokenAddresses",
          "type": "address[]"
        },
        {
          "internalType": "uint256[]",
          "name": "_ratios",
          "type": "uint256[]"
        }
      ],
      "stateMutability": "nonpayable",
      "type": "constructor"
    },
    {
      "inputs": [],
      "name": "ReentrancyGuardReentrantCall",
      "type": "error"
    },
    {
      "anonymous": false,
      "inputs": [
        {
          "indexed": true,
          "internalType": "address",
          "name": "buyer",
          "type": "address"
        }
      ],
      "name": "BuyerRemoved",
      "type": "event"
    },
    {
      "anonymous": false,
      "inputs": [
        {
          "indexed": true,
          "internalType": "address",
          "name": "to",
          "type": "address"
        },
        {
          "indexed": false,
          "internalType": "uint256",
          "name": "amount",
          "type": "uint256"
        }
      ],
      "name": "DistributionSent",
      "type": "event"
    },
    {
      "anonymous": false,
      "inputs": [
        {
          "indexed": true,
          "internalType": "address",
          "name": "buyer",
          "type": "address"
        },
        {
          "indexed": true,
          "internalType": "address",
          "name": "portfolio",
          "type": "address"
        },
        {
          "indexed": false,
          "internalType": "uint256",
          "name": "amount",
          "type": "uint256"
        }
      ],
      "name": "PortfolioBought",
      "type": "event"
    },
    {
      "anonymous": false,
      "inputs": [
        {
          "indexed": true,
          "internalType": "address",
          "name": "curator",
          "type": "address"
        },
        {
          "indexed": false,
          "internalType": "string",
          "name": "name",
          "type": "string"
        },
        {
          "indexed": false,
          "internalType": "string",
          "name": "symbol",
          "type": "string"
        }
      ],
      "name": "PortfolioCreated",
      "type": "event"
    },
    {
      "anonymous": false,
      "inputs": [
        {
          "indexed": true,
          "internalType": "address",
          "name": "seller",
          "type": "address"
        },
        {
          "indexed": true,
          "internalType": "address",
          "name": "token",
          "type": "address"
        },
        {
          "indexed": false,
          "internalType": "uint256",
          "name": "ethAmount",
          "type": "uint256"
        }
      ],
      "name": "PortfolioSold",
      "type": "event"
    },
    {
      "inputs": [
        {
          "internalType": "uint256",
          "name": "amount",
          "type": "uint256"
        }
      ],
      "name": "buyPortfolio",
      "outputs": [],
      "stateMutability": "payable",
      "type": "function"
    },
    {
      "inputs": [],
      "name": "curator",
      "outputs": [
        {
          "internalType": "address",
          "name": "",
          "type": "address"
        }
      ],
      "stateMutability": "view",
      "type": "function"
    },
    {
      "inputs": [],
      "name": "curatorFee",
      "outputs": [
        {
          "internalType": "uint256",
          "name": "",
          "type": "uint256"
        }
      ],
      "stateMutability": "view",
      "type": "function"
    },
    {
      "inputs": [],
      "name": "getBuyerList",
      "outputs": [
        {
          "internalType": "address[]",
          "name": "",
          "type": "address[]"
        }
      ],
      "stateMutability": "view",
      "type": "function"
    },
    {
      "inputs": [],
      "name": "getRatios",
      "outputs": [
        {
          "internalType": "uint256[]",
          "name": "",
          "type": "uint256[]"
        }
      ],
      "stateMutability": "view",
      "type": "function"
    },
    {
      "inputs": [],
      "name": "getTokenAddresses",
      "outputs": [
        {
          "internalType": "address[]",
          "name": "",
          "type": "address[]"
        }
      ],
      "stateMutability": "view",
      "type": "function"
    },
    {
      "inputs": [
        {
          "internalType": "address",
          "name": "",
          "type": "address"
        }
      ],
      "name": "isBuyer",
      "outputs": [
        {
          "internalType": "bool",
          "name": "",
          "type": "bool"
        }
      ],
      "stateMutability": "view",
      "type": "function"
    },
    {
      "inputs": [],
      "name": "kyoso",
      "outputs": [
        {
          "internalType": "address",
          "name": "",
          "type": "address"
        }
      ],
      "stateMutability": "view",
      "type": "function"
    },
    {
      "inputs": [],
      "name": "kyosoFee",
      "outputs": [
        {
          "internalType": "uint256",
          "name": "",
          "type": "uint256"
        }
      ],
      "stateMutability": "view",
      "type": "function"
    },
    {
      "inputs": [],
      "name": "name",
      "outputs": [
        {
          "internalType": "string",
          "name": "",
          "type": "string"
        }
      ],
      "stateMutability": "view",
      "type": "function"
    },
    {
      "inputs": [],
      "name": "symbol",
      "outputs": [
        {
          "internalType": "string",
          "name": "",
          "type": "string"
        }
      ],
      "stateMutability": "view",
      "type": "function"
    }
  ],
  "bytecode": "0x6080604052600160055560056006553480156200001b57600080fd5b5060405162000f0938038062000f098339810160408190526200003e9162000442565b60016000558051825114620000ac5760405162461bcd60e51b815260206004820152602a60248201527f546f6b656e2061646472657373657320616e6420726174696f73206c656e67746044820152690d040dad2e6dac2e8c6d60b31b606482015260840160405180910390fd5b600980546001600160a01b038087166001600160a01b031992831617909255600a8054928616929091169190911790556007620000ea8782620005b0565b506008620000f98682620005b0565b5081516200010f90600190602085019062000177565b50805162000125906002906020840190620001e1565b50836001600160a01b03167ff3bfd287a6c4aeb2fee8ee502ea9001abd8d43f3262fdc2d2ef138950e1f77ce878760405162000163929190620006aa565b60405180910390a2505050505050620006dc565b828054828255906000526020600020908101928215620001cf579160200282015b82811115620001cf57825182546001600160a01b0319166001600160a01b0390911617825560209092019160019091019062000198565b50620001dd9291506200021f565b5090565b828054828255906000526020600020908101928215620001cf579160200282015b82811115620001cf57825182559160200191906001019062000202565b5b80821115620001dd576000815560010162000220565b634e487b7160e01b600052604160045260246000fd5b604051601f8201601f191681016001600160401b038111828210171562000277576200027762000236565b604052919050565b60005b838110156200029c57818101518382015260200162000282565b50506000910152565b600082601f830112620002b757600080fd5b81516001600160401b03811115620002d357620002d362000236565b620002e8601f8201601f19166020016200024c565b818152846020838601011115620002fe57600080fd5b620003118260208301602087016200027f565b949350505050565b80516001600160a01b03811681146200033157600080fd5b919050565b60006001600160401b0382111562000352576200035262000236565b5060051b60200190565b600082601f8301126200036e57600080fd5b8151602062000387620003818362000336565b6200024c565b8083825260208201915060208460051b870101935086841115620003aa57600080fd5b602086015b84811015620003d157620003c38162000319565b8352918301918301620003af565b509695505050505050565b600082601f830112620003ee57600080fd5b8151602062000401620003818362000336565b8083825260208201915060208460051b8701019350868411156200042457600080fd5b602086015b84811015620003d1578051835291830191830162000429565b60008060008060008060c087890312156200045c57600080fd5b86516001600160401b03808211156200047457600080fd5b620004828a838b01620002a5565b975060208901519150808211156200049957600080fd5b620004a78a838b01620002a5565b9650620004b760408a0162000319565b9550620004c760608a0162000319565b94506080890151915080821115620004de57600080fd5b620004ec8a838b016200035c565b935060a08901519150808211156200050357600080fd5b506200051289828a01620003dc565b9150509295509295509295565b600181811c908216806200053457607f821691505b6020821081036200055557634e487b7160e01b600052602260045260246000fd5b50919050565b601f821115620005ab576000816000526020600020601f850160051c81016020861015620005865750805b601f850160051c820191505b81811015620005a75782815560010162000592565b5050505b505050565b81516001600160401b03811115620005cc57620005cc62000236565b620005e481620005dd84546200051f565b846200055b565b602080601f8311600181146200061c5760008415620006035750858301515b600019600386901b1c1916600185901b178555620005a7565b600085815260208120601f198616915b828110156200064d578886015182559484019460019091019084016200062c565b50858210156200066c5787850151600019600388901b60f8161c191681555b5050505050600190811b01905550565b60008151808452620006968160208601602086016200027f565b601f01601f19169290920160200192915050565b604081526000620006bf60408301856200067c565b8281036020840152620006d381856200067c565b95945050505050565b61081d80620006ec6000396000f3fe60806040526004361061009c5760003560e01c8063b13c86a311610064578063b13c86a31461015a578063bd4efbfb1461017c578063ce525a751461019e578063e66f53b7146101b4578063ee8c24b8146101ec578063f4d7eb361461020157600080fd5b806306fdde03146100a15780632a55feec146100cc5780634ed7c07d1461010c57806395d89b4114610130578063afb21f2f14610145575b600080fd5b3480156100ad57600080fd5b506100b6610221565b6040516100c39190610628565b60405180910390f35b3480156100d857600080fd5b506100fc6100e7366004610677565b60046020526000908152604090205460ff1681565b60405190151581526020016100c3565b34801561011857600080fd5b5061012260065481565b6040519081526020016100c3565b34801561013c57600080fd5b506100b66102af565b6101586101533660046106a7565b6102bc565b005b34801561016657600080fd5b5061016f61041e565b6040516100c391906106c0565b34801561018857600080fd5b50610191610478565b6040516100c39190610704565b3480156101aa57600080fd5b5061012260055481565b3480156101c057600080fd5b506009546101d4906001600160a01b031681565b6040516001600160a01b0390911681526020016100c3565b3480156101f857600080fd5b506101916104dc565b34801561020d57600080fd5b50600a546101d4906001600160a01b031681565b6007805461022e90610745565b80601f016020809104026020016040519081016040528092919081815260200182805461025a90610745565b80156102a75780601f1061027c576101008083540402835291602001916102a7565b820191906000526020600020905b81548152906001019060200180831161028a57829003601f168201915b505050505081565b6008805461022e90610745565b6102c461053f565b80341461030e5760405162461bcd60e51b8152602060048201526014602482015273125b98dbdc9c9958dd0811551208185b5bdd5b9d60621b604482015260640160405180910390fd5b60008061031a83610569565b6009549193509150610335906001600160a01b0316836105aa565b600a5461034b906001600160a01b0316826105aa565b6000816103588486610795565b6103629190610795565b3360009081526004602052604090205490915060ff166103d7576003805460018181019092557fc2575a0e9e593c00f959f8c92f12db2869c3395a3b0502d05e2516446f71f85b0180546001600160a01b031916339081179091556000908152600460205260409020805460ff191690911790555b604051848152309033907fa13f6578a5ad710e5ac3a4c7396b31b87bb22144bdc08fa1b9b0e6652ab879cb9060200160405180910390a350505061041b6001600055565b50565b60606001800180548060200260200160405190810160405280929190818152602001828054801561046e57602002820191906000526020600020905b81548152602001906001019080831161045a575b5050505050905090565b6060600160020180548060200260200160405190810160405280929190818152602001828054801561046e57602002820191906000526020600020905b81546001600160a01b031681526001909101906020018083116104b5575050505050905090565b6060600160000180548060200260200160405190810160405280929190818152602001828054801561046e576020028201919060005260206000209081546001600160a01b031681526001909101906020018083116104b5575050505050905090565b60026000540361056257604051633ee5aeb560e01b815260040160405180910390fd5b6002600055565b60008060646005548461057c91906107ae565b61058691906107c5565b91506103e86006548461059991906107ae565b6105a391906107c5565b9050915091565b6040516001600160a01b0383169082156108fc029083906000818181858888f193505050501580156105e0573d6000803e3d6000fd5b50816001600160a01b03167f78786c581da76125b3c6c8a810adb3d2dab5d14b1273b8220661085f045e25cd8260405161061c91815260200190565b60405180910390a25050565b60006020808352835180602085015260005b818110156106565785810183015185820160400152820161063a565b506000604082860101526040601f19601f8301168501019250505092915050565b60006020828403121561068957600080fd5b81356001600160a01b03811681146106a057600080fd5b9392505050565b6000602082840312156106b957600080fd5b5035919050565b6020808252825182820181905260009190848201906040850190845b818110156106f8578351835292840192918401916001016106dc565b50909695505050505050565b6020808252825182820181905260009190848201906040850190845b818110156106f85783516001600160a01b031683529284019291840191600101610720565b600181811c9082168061075957607f821691505b60208210810361077957634e487b7160e01b600052602260045260246000fd5b50919050565b634e487b7160e01b600052601160045260246000fd5b818103818111156107a8576107a861077f565b92915050565b80820281158282048414176107a8576107a861077f565b6000826107e257634e487b7160e01b600052601260045260246000fd5b50049056fea26469706673582212204d9e9fa14ee213e6201f7ded4b18f81c137a7063efe81378438c917cf60cf36b64736f6c63430008180033",
  "linkReferences": {},
  "deployedLinkReferences": {}
}