{
  "_format": "hh-sol-artifact-1",
  "contractName": "PortfolioFactory",
  "sourceName": "contracts/PortfolioFactory.sol",
  "abi": [
    {
      "anonymous": false,
      "inputs": [
        {
          "indexed": true,
          "internalType": "address",
          "name": "portfolioAddress",
          "type": "address"
        },
        {
          "indexed": true,
          "internalType": "address",
          "name": "curator",
          "type": "address"
        },
        {
          "indexed": false,
          "internalType": "string",
          "name": "name",
          "type": "string"
        },
        {
          "indexed": false,
          "internalType": "string",
          "name": "symbol",
          "type": "string"
        },
        {
          "indexed": false,
          "internalType": "address[]",
          "name": "tokenAddresses",
          "type": "address[]"
        },
        {
          "indexed": false,
          "internalType": "uint256[]",
          "name": "ratios",
          "type": "uint256[]"
        }
      ],
      "name": "FactoryCreated",
      "type": "event"
    },
    {
      "inputs": [
        {
          "internalType": "string",
          "name": "_name",
          "type": "string"
        },
        {
          "internalType": "string",
          "name": "_symbol",
          "type": "string"
        },
        {
          "internalType": "address",
          "name": "_curator",
          "type": "address"
        },
        {
          "internalType": "address",
          "name": "_kyoso",
          "type": "address"
        },
        {
          "internalType": "address[]",
          "name": "_tokenAddresses",
          "type": "address[]"
        },
        {
          "internalType": "uint256[]",
          "name": "_ratios",
          "type": "uint256[]"
        }
      ],
      "name": "createPortfolio",
      "outputs": [
        {
          "internalType": "address",
          "name": "",
          "type": "address"
        }
      ],
      "stateMutability": "nonpayable",
      "type": "function"
    },
    {
      "inputs": [],
      "name": "getAllPortfolios",
      "outputs": [
        {
          "components": [
            {
              "internalType": "address",
              "name": "portfolioAddress",
              "type": "address"
            },
            {
              "internalType": "address",
              "name": "curator",
              "type": "address"
            },
            {
              "internalType": "string",
              "name": "name",
              "type": "string"
            },
            {
              "internalType": "string",
              "name": "symbol",
              "type": "string"
            },
            {
              "internalType": "address[]",
              "name": "tokenAddresses",
              "type": "address[]"
            },
            {
              "internalType": "uint256[]",
              "name": "ratios",
              "type": "uint256[]"
            }
          ],
          "internalType": "struct IPortfolioFactory.PortfolioInfo[]",
          "name": "",
          "type": "tuple[]"
        }
      ],
      "stateMutability": "view",
      "type": "function"
    },
    {
      "inputs": [
        {
          "internalType": "address",
          "name": "_curator",
          "type": "address"
        }
      ],
      "name": "getPortfolioAddressByCurator",
      "outputs": [
        {
          "internalType": "address[]",
          "name": "",
          "type": "address[]"
        }
      ],
      "stateMutability": "view",
      "type": "function"
    },
    {
      "inputs": [
        {
          "internalType": "uint256",
          "name": "",
          "type": "uint256"
        }
      ],
      "name": "portfolios",
      "outputs": [
        {
          "internalType": "address",
          "name": "portfolioAddress",
          "type": "address"
        },
        {
          "internalType": "address",
          "name": "curator",
          "type": "address"
        },
        {
          "internalType": "string",
          "name": "name",
          "type": "string"
        },
        {
          "internalType": "string",
          "name": "symbol",
          "type": "string"
        }
      ],
      "stateMutability": "view",
      "type": "function"
    },
    {
      "inputs": [
        {
          "internalType": "address",
          "name": "",
          "type": "address"
        },
        {
          "internalType": "uint256",
          "name": "",
          "type": "uint256"
        }
      ],
      "name": "userPortfolios",
      "outputs": [
        {
          "internalType": "address",
          "name": "",
          "type": "address"
        }
      ],
      "stateMutability": "view",
      "type": "function"
    }
  ],
  "bytecode": "0x608060405234801561001057600080fd5b506120ab806100206000396000f3fe60806040523480156200001157600080fd5b50600436106200005e5760003560e01c806335feb2f21462000063578063367ca914146200009757806353f75e0014620000c05780638be9239c14620000e6578063e01ebf3814620000fd575b600080fd5b6200007a6200007436600462000b7a565b62000116565b6040516001600160a01b0390911681526020015b60405180910390f35b620000ae620000a836600462000c58565b62000430565b6040516200008e949392919062000cba565b620000d7620000d136600462000d07565b6200059b565b6040516200008e919062000d73565b6200007a620000f736600462000d88565b62000613565b620001076200064c565b6040516200008e919062000de8565b60008151835114620001825760405162461bcd60e51b815260206004820152602a60248201527f546f6b656e2061646472657373657320616e6420726174696f73206c656e67746044820152690d040dad2e6dac2e8c6d60b31b60648201526084015b60405180910390fd5b6000805b8351811015620001c557838181518110620001a557620001a562000f02565b602002602001015182620001ba919062000f18565b915060010162000186565b5080606414620002185760405162461bcd60e51b815260206004820152601b60248201527f546f74616c20726174696f73206d75737420657175616c203130300000000000604482015260640162000179565b60008888888888886040516200022e90620008c2565b6200023f9695949392919062000f40565b604051809103906000f0801580156200025c573d6000803e3d6000fd5b506040805160c0810182526001600160a01b0380841682528a8116602083019081529282018d8152606083018d9052608083018a905260a0830189905260008054600181018255908052835160069091027f290decd9548b62a8d60345a988386fc84ba6bc95484008f6362f93160ef3e563810180549285166001600160a01b031993841617815595517f290decd9548b62a8d60345a988386fc84ba6bc95484008f6362f93160ef3e56482018054919095169216919091179092555193945090928392917f290decd9548b62a8d60345a988386fc84ba6bc95484008f6362f93160ef3e56501906200035090826200104a565b50606082015160038201906200036790826200104a565b506080820151805162000385916004840191602090910190620008d0565b5060a08201518051620003a39160058401916020909101906200093a565b5050506001600160a01b03888116600081815260016020818152604080842080549384018155845292200180546001600160a01b0319169386169384179055519091907f322acfb50fb9e742db6f42b46a9d41c5fc46f295ff854ea1c9df7abc570c554c906200041b908e908e908c908c9062001117565b60405180910390a35098975050505050505050565b600081815481106200044157600080fd5b60009182526020909120600690910201805460018201546002830180546001600160a01b0393841695509290911692916200047c9062000fb9565b80601f0160208091040260200160405190810160405280929190818152602001828054620004aa9062000fb9565b8015620004fb5780601f10620004cf57610100808354040283529160200191620004fb565b820191906000526020600020905b815481529060010190602001808311620004dd57829003601f168201915b505050505090806003018054620005129062000fb9565b80601f0160208091040260200160405190810160405280929190818152602001828054620005409062000fb9565b8015620005915780601f10620005655761010080835404028352916020019162000591565b820191906000526020600020905b8154815290600101906020018083116200057357829003601f168201915b5050505050905084565b6001600160a01b0381166000908152600160209081526040918290208054835181840281018401909452808452606093928301828280156200060757602002820191906000526020600020905b81546001600160a01b03168152600190910190602001808311620005e8575b50505050509050919050565b600160205281600052604060002081815481106200063057600080fd5b6000918252602090912001546001600160a01b03169150829050565b60606000805480602002602001604051908101604052809291908181526020016000905b82821015620008b95760008481526020908190206040805160c0810182526006860290920180546001600160a01b0390811684526001820154169383019390935260028301805492939291840191620006c99062000fb9565b80601f0160208091040260200160405190810160405280929190818152602001828054620006f79062000fb9565b8015620007485780601f106200071c5761010080835404028352916020019162000748565b820191906000526020600020905b8154815290600101906020018083116200072a57829003601f168201915b50505050508152602001600382018054620007639062000fb9565b80601f0160208091040260200160405190810160405280929190818152602001828054620007919062000fb9565b8015620007e25780601f10620007b657610100808354040283529160200191620007e2565b820191906000526020600020905b815481529060010190602001808311620007c457829003601f168201915b50505050508152602001600482018054806020026020016040519081016040528092919081815260200182805480156200084657602002820191906000526020600020905b81546001600160a01b0316815260019091019060200180831162000827575b5050505050815260200160058201805480602002602001604051908101604052809291908181526020018280548015620008a057602002820191906000526020600020905b8154815260200190600101908083116200088b575b5050505050815250508152602001906001019062000670565b50505050905090565b610f09806200116d83390190565b82805482825590600052602060002090810192821562000928579160200282015b828111156200092857825182546001600160a01b0319166001600160a01b03909116178255602090920191600190910190620008f1565b506200093692915062000978565b5090565b82805482825590600052602060002090810192821562000928579160200282015b82811115620009285782518255916020019190600101906200095b565b5b8082111562000936576000815560010162000979565b634e487b7160e01b600052604160045260246000fd5b604051601f8201601f1916810167ffffffffffffffff81118282101715620009d157620009d16200098f565b604052919050565b600082601f830112620009eb57600080fd5b813567ffffffffffffffff81111562000a085762000a086200098f565b62000a1d601f8201601f1916602001620009a5565b81815284602083860101111562000a3357600080fd5b816020850160208301376000918101602001919091529392505050565b80356001600160a01b038116811462000a6857600080fd5b919050565b600067ffffffffffffffff82111562000a8a5762000a8a6200098f565b5060051b60200190565b600082601f83011262000aa657600080fd5b8135602062000abf62000ab98362000a6d565b620009a5565b8083825260208201915060208460051b87010193508684111562000ae257600080fd5b602086015b8481101562000b095762000afb8162000a50565b835291830191830162000ae7565b509695505050505050565b600082601f83011262000b2657600080fd5b8135602062000b3962000ab98362000a6d565b8083825260208201915060208460051b87010193508684111562000b5c57600080fd5b602086015b8481101562000b09578035835291830191830162000b61565b60008060008060008060c0878903121562000b9457600080fd5b863567ffffffffffffffff8082111562000bad57600080fd5b62000bbb8a838b01620009d9565b9750602089013591508082111562000bd257600080fd5b62000be08a838b01620009d9565b965062000bf060408a0162000a50565b955062000c0060608a0162000a50565b9450608089013591508082111562000c1757600080fd5b62000c258a838b0162000a94565b935060a089013591508082111562000c3c57600080fd5b5062000c4b89828a0162000b14565b9150509295509295509295565b60006020828403121562000c6b57600080fd5b5035919050565b6000815180845260005b8181101562000c9a5760208185018101518683018201520162000c7c565b506000602082860101526020601f19601f83011685010191505092915050565b6001600160a01b0385811682528416602082015260806040820181905260009062000ce89083018562000c72565b828103606084015262000cfc818562000c72565b979650505050505050565b60006020828403121562000d1a57600080fd5b62000d258262000a50565b9392505050565b60008151808452602080850194506020840160005b8381101562000d685781516001600160a01b03168752958201959082019060010162000d41565b509495945050505050565b60208152600062000d25602083018462000d2c565b6000806040838503121562000d9c57600080fd5b62000da78362000a50565b946020939093013593505050565b60008151808452602080850194506020840160005b8381101562000d685781518752958201959082019060010162000dca565b600060208083018184528085518083526040925060408601915060408160051b8701018488016000805b8481101562000ef357898403603f19018652825180516001600160a01b0390811686528982015181168a8701528882015160c08a8801819052919062000e5b8389018262000c72565b925050606080840151888403828a015262000e77848262000c72565b6080868101518b8303918c01919091528051808352908f019550908e0192508791505b8082101562000ebe57845184168352938d0193918d01916001919091019062000e9a565b505060a0938401518882038986015293925062000edc818562000db5565b998c01999750505093890193505060010162000e12565b50919998505050505050505050565b634e487b7160e01b600052603260045260246000fd5b8082018082111562000f3a57634e487b7160e01b600052601160045260246000fd5b92915050565b60c08152600062000f5560c083018962000c72565b828103602084015262000f69818962000c72565b6001600160a01b038881166040860152871660608501528381036080850152905062000f96818662000d2c565b905082810360a084015262000fac818562000db5565b9998505050505050505050565b600181811c9082168062000fce57607f821691505b60208210810362000fef57634e487b7160e01b600052602260045260246000fd5b50919050565b601f82111562001045576000816000526020600020601f850160051c81016020861015620010205750805b601f850160051c820191505b8181101562001041578281556001016200102c565b5050505b505050565b815167ffffffffffffffff8111156200106757620010676200098f565b6200107f8162001078845462000fb9565b8462000ff5565b602080601f831160018114620010b757600084156200109e5750858301515b600019600386901b1c1916600185901b17855562001041565b600085815260208120601f198616915b82811015620010e857888601518255948401946001909101908401620010c7565b5085821015620011075787850151600019600388901b60f8161c191681555b5050505050600190811b01905550565b6080815260006200112c608083018762000c72565b828103602084015262001140818762000c72565b9050828103604084015262001156818662000d2c565b9050828103606084015262000cfc818562000db556fe6080604052600160055560056006553480156200001b57600080fd5b5060405162000f0938038062000f098339810160408190526200003e9162000442565b60016000558051825114620000ac5760405162461bcd60e51b815260206004820152602a60248201527f546f6b656e2061646472657373657320616e6420726174696f73206c656e67746044820152690d040dad2e6dac2e8c6d60b31b606482015260840160405180910390fd5b600980546001600160a01b038087166001600160a01b031992831617909255600a8054928616929091169190911790556007620000ea8782620005b0565b506008620000f98682620005b0565b5081516200010f90600190602085019062000177565b50805162000125906002906020840190620001e1565b50836001600160a01b03167ff3bfd287a6c4aeb2fee8ee502ea9001abd8d43f3262fdc2d2ef138950e1f77ce878760405162000163929190620006aa565b60405180910390a2505050505050620006dc565b828054828255906000526020600020908101928215620001cf579160200282015b82811115620001cf57825182546001600160a01b0319166001600160a01b0390911617825560209092019160019091019062000198565b50620001dd9291506200021f565b5090565b828054828255906000526020600020908101928215620001cf579160200282015b82811115620001cf57825182559160200191906001019062000202565b5b80821115620001dd576000815560010162000220565b634e487b7160e01b600052604160045260246000fd5b604051601f8201601f191681016001600160401b038111828210171562000277576200027762000236565b604052919050565b60005b838110156200029c57818101518382015260200162000282565b50506000910152565b600082601f830112620002b757600080fd5b81516001600160401b03811115620002d357620002d362000236565b620002e8601f8201601f19166020016200024c565b818152846020838601011115620002fe57600080fd5b620003118260208301602087016200027f565b949350505050565b80516001600160a01b03811681146200033157600080fd5b919050565b60006001600160401b0382111562000352576200035262000236565b5060051b60200190565b600082601f8301126200036e57600080fd5b8151602062000387620003818362000336565b6200024c565b8083825260208201915060208460051b870101935086841115620003aa57600080fd5b602086015b84811015620003d157620003c38162000319565b8352918301918301620003af565b509695505050505050565b600082601f830112620003ee57600080fd5b8151602062000401620003818362000336565b8083825260208201915060208460051b8701019350868411156200042457600080fd5b602086015b84811015620003d1578051835291830191830162000429565b60008060008060008060c087890312156200045c57600080fd5b86516001600160401b03808211156200047457600080fd5b620004828a838b01620002a5565b975060208901519150808211156200049957600080fd5b620004a78a838b01620002a5565b9650620004b760408a0162000319565b9550620004c760608a0162000319565b94506080890151915080821115620004de57600080fd5b620004ec8a838b016200035c565b935060a08901519150808211156200050357600080fd5b506200051289828a01620003dc565b9150509295509295509295565b600181811c908216806200053457607f821691505b6020821081036200055557634e487b7160e01b600052602260045260246000fd5b50919050565b601f821115620005ab576000816000526020600020601f850160051c81016020861015620005865750805b601f850160051c820191505b81811015620005a75782815560010162000592565b5050505b505050565b81516001600160401b03811115620005cc57620005cc62000236565b620005e481620005dd84546200051f565b846200055b565b602080601f8311600181146200061c5760008415620006035750858301515b600019600386901b1c1916600185901b178555620005a7565b600085815260208120601f198616915b828110156200064d578886015182559484019460019091019084016200062c565b50858210156200066c5787850151600019600388901b60f8161c191681555b5050505050600190811b01905550565b60008151808452620006968160208601602086016200027f565b601f01601f19169290920160200192915050565b604081526000620006bf60408301856200067c565b8281036020840152620006d381856200067c565b95945050505050565b61081d80620006ec6000396000f3fe60806040526004361061009c5760003560e01c8063b13c86a311610064578063b13c86a31461015a578063bd4efbfb1461017c578063ce525a751461019e578063e66f53b7146101b4578063ee8c24b8146101ec578063f4d7eb361461020157600080fd5b806306fdde03146100a15780632a55feec146100cc5780634ed7c07d1461010c57806395d89b4114610130578063afb21f2f14610145575b600080fd5b3480156100ad57600080fd5b506100b6610221565b6040516100c39190610628565b60405180910390f35b3480156100d857600080fd5b506100fc6100e7366004610677565b60046020526000908152604090205460ff1681565b60405190151581526020016100c3565b34801561011857600080fd5b5061012260065481565b6040519081526020016100c3565b34801561013c57600080fd5b506100b66102af565b6101586101533660046106a7565b6102bc565b005b34801561016657600080fd5b5061016f61041e565b6040516100c391906106c0565b34801561018857600080fd5b50610191610478565b6040516100c39190610704565b3480156101aa57600080fd5b5061012260055481565b3480156101c057600080fd5b506009546101d4906001600160a01b031681565b6040516001600160a01b0390911681526020016100c3565b3480156101f857600080fd5b506101916104dc565b34801561020d57600080fd5b50600a546101d4906001600160a01b031681565b6007805461022e90610745565b80601f016020809104026020016040519081016040528092919081815260200182805461025a90610745565b80156102a75780601f1061027c576101008083540402835291602001916102a7565b820191906000526020600020905b81548152906001019060200180831161028a57829003601f168201915b505050505081565b6008805461022e90610745565b6102c461053f565b80341461030e5760405162461bcd60e51b8152602060048201526014602482015273125b98dbdc9c9958dd0811551208185b5bdd5b9d60621b604482015260640160405180910390fd5b60008061031a83610569565b6009549193509150610335906001600160a01b0316836105aa565b600a5461034b906001600160a01b0316826105aa565b6000816103588486610795565b6103629190610795565b3360009081526004602052604090205490915060ff166103d7576003805460018181019092557fc2575a0e9e593c00f959f8c92f12db2869c3395a3b0502d05e2516446f71f85b0180546001600160a01b031916339081179091556000908152600460205260409020805460ff191690911790555b604051848152309033907fa13f6578a5ad710e5ac3a4c7396b31b87bb22144bdc08fa1b9b0e6652ab879cb9060200160405180910390a350505061041b6001600055565b50565b60606001800180548060200260200160405190810160405280929190818152602001828054801561046e57602002820191906000526020600020905b81548152602001906001019080831161045a575b5050505050905090565b6060600160020180548060200260200160405190810160405280929190818152602001828054801561046e57602002820191906000526020600020905b81546001600160a01b031681526001909101906020018083116104b5575050505050905090565b6060600160000180548060200260200160405190810160405280929190818152602001828054801561046e576020028201919060005260206000209081546001600160a01b031681526001909101906020018083116104b5575050505050905090565b60026000540361056257604051633ee5aeb560e01b815260040160405180910390fd5b6002600055565b60008060646005548461057c91906107ae565b61058691906107c5565b91506103e86006548461059991906107ae565b6105a391906107c5565b9050915091565b6040516001600160a01b0383169082156108fc029083906000818181858888f193505050501580156105e0573d6000803e3d6000fd5b50816001600160a01b03167f78786c581da76125b3c6c8a810adb3d2dab5d14b1273b8220661085f045e25cd8260405161061c91815260200190565b60405180910390a25050565b60006020808352835180602085015260005b818110156106565785810183015185820160400152820161063a565b506000604082860101526040601f19601f8301168501019250505092915050565b60006020828403121561068957600080fd5b81356001600160a01b03811681146106a057600080fd5b9392505050565b6000602082840312156106b957600080fd5b5035919050565b6020808252825182820181905260009190848201906040850190845b818110156106f8578351835292840192918401916001016106dc565b50909695505050505050565b6020808252825182820181905260009190848201906040850190845b818110156106f85783516001600160a01b031683529284019291840191600101610720565b600181811c9082168061075957607f821691505b60208210810361077957634e487b7160e01b600052602260045260246000fd5b50919050565b634e487b7160e01b600052601160045260246000fd5b818103818111156107a8576107a861077f565b92915050565b80820281158282048414176107a8576107a861077f565b6000826107e257634e487b7160e01b600052601260045260246000fd5b50049056fea26469706673582212204d9e9fa14ee213e6201f7ded4b18f81c137a7063efe81378438c917cf60cf36b64736f6c63430008180033a2646970667358221220390493b48086bda5947bba3bf16efd3ab7c5c4e2fee20aec911cf14445bc506864736f6c63430008180033",
  "linkReferences": {},
  "deployedLinkReferences": {}
}