{
  "_format": "hh-sol-artifact-1",
  "contractName": "PortfolioFactory",
  "sourceName": "contracts/PortfolioFactory.sol",
  "abi": [
    {
      "anonymous": false,
      "inputs": [
        {
          "indexed": true,
          "internalType": "address",
          "name": "portfolioAddress",
          "type": "address"
        },
        {
          "indexed": true,
          "internalType": "address",
          "name": "curator",
          "type": "address"
        },
        {
          "indexed": false,
          "internalType": "string",
          "name": "name",
          "type": "string"
        },
        {
          "indexed": false,
          "internalType": "string",
          "name": "symbol",
          "type": "string"
        },
        {
          "indexed": false,
          "internalType": "address[]",
          "name": "tokenAddresses",
          "type": "address[]"
        },
        {
          "indexed": false,
          "internalType": "uint256[]",
          "name": "ratios",
          "type": "uint256[]"
        }
      ],
      "name": "FactoryCreated",
      "type": "event"
    },
    {
      "inputs": [
        {
          "internalType": "string",
          "name": "_name",
          "type": "string"
        },
        {
          "internalType": "string",
          "name": "_symbol",
          "type": "string"
        },
        {
          "internalType": "address",
          "name": "_curator",
          "type": "address"
        },
        {
          "internalType": "address",
          "name": "_kyoso",
          "type": "address"
        },
        {
          "internalType": "address[]",
          "name": "_tokenAddresses",
          "type": "address[]"
        },
        {
          "internalType": "uint256[]",
          "name": "_ratios",
          "type": "uint256[]"
        }
      ],
      "name": "createPortfolio",
      "outputs": [
        {
          "internalType": "address",
          "name": "",
          "type": "address"
        }
      ],
      "stateMutability": "nonpayable",
      "type": "function"
    },
    {
      "inputs": [],
      "name": "getAllPortfolios",
      "outputs": [
        {
          "components": [
            {
              "internalType": "address",
              "name": "portfolioAddress",
              "type": "address"
            },
            {
              "internalType": "address",
              "name": "curator",
              "type": "address"
            },
            {
              "internalType": "string",
              "name": "name",
              "type": "string"
            },
            {
              "internalType": "string",
              "name": "symbol",
              "type": "string"
            },
            {
              "internalType": "address[]",
              "name": "tokenAddresses",
              "type": "address[]"
            },
            {
              "internalType": "uint256[]",
              "name": "ratios",
              "type": "uint256[]"
            }
          ],
          "internalType": "struct IPortfolioFactory.PortfolioInfo[]",
          "name": "",
          "type": "tuple[]"
        }
      ],
      "stateMutability": "view",
      "type": "function"
    },
    {
      "inputs": [
        {
          "internalType": "address",
          "name": "_curator",
          "type": "address"
        }
      ],
      "name": "getPortfolioAddressByCurator",
      "outputs": [
        {
          "internalType": "address[]",
          "name": "",
          "type": "address[]"
        }
      ],
      "stateMutability": "view",
      "type": "function"
    },
    {
      "inputs": [
        {
          "internalType": "uint256",
          "name": "",
          "type": "uint256"
        }
      ],
      "name": "portfolios",
      "outputs": [
        {
          "internalType": "address",
          "name": "portfolioAddress",
          "type": "address"
        },
        {
          "internalType": "address",
          "name": "curator",
          "type": "address"
        },
        {
          "internalType": "string",
          "name": "name",
          "type": "string"
        },
        {
          "internalType": "string",
          "name": "symbol",
          "type": "string"
        }
      ],
      "stateMutability": "view",
      "type": "function"
    },
    {
      "inputs": [
        {
          "internalType": "address",
          "name": "",
          "type": "address"
        },
        {
          "internalType": "uint256",
          "name": "",
          "type": "uint256"
        }
      ],
      "name": "userPortfolios",
      "outputs": [
        {
          "internalType": "address",
          "name": "",
          "type": "address"
        }
      ],
      "stateMutability": "view",
      "type": "function"
    }
  ],
  "bytecode": "0x608060405234801561001057600080fd5b50612782806100206000396000f3fe60806040523480156200001157600080fd5b50600436106200005e5760003560e01c806335feb2f21462000063578063367ca914146200009757806353f75e0014620000c05780638be9239c14620000e6578063e01ebf3814620000fd575b600080fd5b6200007a6200007436600462000b7a565b62000116565b6040516001600160a01b0390911681526020015b60405180910390f35b620000ae620000a836600462000c58565b62000430565b6040516200008e949392919062000cba565b620000d7620000d136600462000d07565b6200059b565b6040516200008e919062000d73565b6200007a620000f736600462000d88565b62000613565b620001076200064c565b6040516200008e919062000de8565b60008151835114620001825760405162461bcd60e51b815260206004820152602a60248201527f546f6b656e2061646472657373657320616e6420726174696f73206c656e67746044820152690d040dad2e6dac2e8c6d60b31b60648201526084015b60405180910390fd5b6000805b8351811015620001c557838181518110620001a557620001a562000f02565b602002602001015182620001ba919062000f18565b915060010162000186565b5080606414620002185760405162461bcd60e51b815260206004820152601b60248201527f546f74616c20726174696f73206d75737420657175616c203130300000000000604482015260640162000179565b60008888888888886040516200022e90620008c2565b6200023f9695949392919062000f40565b604051809103906000f0801580156200025c573d6000803e3d6000fd5b506040805160c0810182526001600160a01b0380841682528a8116602083019081529282018d8152606083018d9052608083018a905260a0830189905260008054600181018255908052835160069091027f290decd9548b62a8d60345a988386fc84ba6bc95484008f6362f93160ef3e563810180549285166001600160a01b031993841617815595517f290decd9548b62a8d60345a988386fc84ba6bc95484008f6362f93160ef3e56482018054919095169216919091179092555193945090928392917f290decd9548b62a8d60345a988386fc84ba6bc95484008f6362f93160ef3e56501906200035090826200104a565b50606082015160038201906200036790826200104a565b506080820151805162000385916004840191602090910190620008d0565b5060a08201518051620003a39160058401916020909101906200093a565b5050506001600160a01b03888116600081815260016020818152604080842080549384018155845292200180546001600160a01b0319169386169384179055519091907f322acfb50fb9e742db6f42b46a9d41c5fc46f295ff854ea1c9df7abc570c554c906200041b908e908e908c908c9062001117565b60405180910390a35098975050505050505050565b600081815481106200044157600080fd5b60009182526020909120600690910201805460018201546002830180546001600160a01b0393841695509290911692916200047c9062000fb9565b80601f0160208091040260200160405190810160405280929190818152602001828054620004aa9062000fb9565b8015620004fb5780601f10620004cf57610100808354040283529160200191620004fb565b820191906000526020600020905b815481529060010190602001808311620004dd57829003601f168201915b505050505090806003018054620005129062000fb9565b80601f0160208091040260200160405190810160405280929190818152602001828054620005409062000fb9565b8015620005915780601f10620005655761010080835404028352916020019162000591565b820191906000526020600020905b8154815290600101906020018083116200057357829003601f168201915b5050505050905084565b6001600160a01b0381166000908152600160209081526040918290208054835181840281018401909452808452606093928301828280156200060757602002820191906000526020600020905b81546001600160a01b03168152600190910190602001808311620005e8575b50505050509050919050565b600160205281600052604060002081815481106200063057600080fd5b6000918252602090912001546001600160a01b03169150829050565b60606000805480602002602001604051908101604052809291908181526020016000905b82821015620008b95760008481526020908190206040805160c0810182526006860290920180546001600160a01b0390811684526001820154169383019390935260028301805492939291840191620006c99062000fb9565b80601f0160208091040260200160405190810160405280929190818152602001828054620006f79062000fb9565b8015620007485780601f106200071c5761010080835404028352916020019162000748565b820191906000526020600020905b8154815290600101906020018083116200072a57829003601f168201915b50505050508152602001600382018054620007639062000fb9565b80601f0160208091040260200160405190810160405280929190818152602001828054620007919062000fb9565b8015620007e25780601f10620007b657610100808354040283529160200191620007e2565b820191906000526020600020905b815481529060010190602001808311620007c457829003601f168201915b50505050508152602001600482018054806020026020016040519081016040528092919081815260200182805480156200084657602002820191906000526020600020905b81546001600160a01b0316815260019091019060200180831162000827575b5050505050815260200160058201805480602002602001604051908101604052809291908181526020018280548015620008a057602002820191906000526020600020905b8154815260200190600101908083116200088b575b5050505050815250508152602001906001019062000670565b50505050905090565b6115e0806200116d83390190565b82805482825590600052602060002090810192821562000928579160200282015b828111156200092857825182546001600160a01b0319166001600160a01b03909116178255602090920191600190910190620008f1565b506200093692915062000978565b5090565b82805482825590600052602060002090810192821562000928579160200282015b82811115620009285782518255916020019190600101906200095b565b5b8082111562000936576000815560010162000979565b634e487b7160e01b600052604160045260246000fd5b604051601f8201601f1916810167ffffffffffffffff81118282101715620009d157620009d16200098f565b604052919050565b600082601f830112620009eb57600080fd5b813567ffffffffffffffff81111562000a085762000a086200098f565b62000a1d601f8201601f1916602001620009a5565b81815284602083860101111562000a3357600080fd5b816020850160208301376000918101602001919091529392505050565b80356001600160a01b038116811462000a6857600080fd5b919050565b600067ffffffffffffffff82111562000a8a5762000a8a6200098f565b5060051b60200190565b600082601f83011262000aa657600080fd5b8135602062000abf62000ab98362000a6d565b620009a5565b8083825260208201915060208460051b87010193508684111562000ae257600080fd5b602086015b8481101562000b095762000afb8162000a50565b835291830191830162000ae7565b509695505050505050565b600082601f83011262000b2657600080fd5b8135602062000b3962000ab98362000a6d565b8083825260208201915060208460051b87010193508684111562000b5c57600080fd5b602086015b8481101562000b09578035835291830191830162000b61565b60008060008060008060c0878903121562000b9457600080fd5b863567ffffffffffffffff8082111562000bad57600080fd5b62000bbb8a838b01620009d9565b9750602089013591508082111562000bd257600080fd5b62000be08a838b01620009d9565b965062000bf060408a0162000a50565b955062000c0060608a0162000a50565b9450608089013591508082111562000c1757600080fd5b62000c258a838b0162000a94565b935060a089013591508082111562000c3c57600080fd5b5062000c4b89828a0162000b14565b9150509295509295509295565b60006020828403121562000c6b57600080fd5b5035919050565b6000815180845260005b8181101562000c9a5760208185018101518683018201520162000c7c565b506000602082860101526020601f19601f83011685010191505092915050565b6001600160a01b0385811682528416602082015260806040820181905260009062000ce89083018562000c72565b828103606084015262000cfc818562000c72565b979650505050505050565b60006020828403121562000d1a57600080fd5b62000d258262000a50565b9392505050565b60008151808452602080850194506020840160005b8381101562000d685781516001600160a01b03168752958201959082019060010162000d41565b509495945050505050565b60208152600062000d25602083018462000d2c565b6000806040838503121562000d9c57600080fd5b62000da78362000a50565b946020939093013593505050565b60008151808452602080850194506020840160005b8381101562000d685781518752958201959082019060010162000dca565b600060208083018184528085518083526040925060408601915060408160051b8701018488016000805b8481101562000ef357898403603f19018652825180516001600160a01b0390811686528982015181168a8701528882015160c08a8801819052919062000e5b8389018262000c72565b925050606080840151888403828a015262000e77848262000c72565b6080868101518b8303918c01919091528051808352908f019550908e0192508791505b8082101562000ebe57845184168352938d0193918d01916001919091019062000e9a565b505060a0938401518882038986015293925062000edc818562000db5565b998c01999750505093890193505060010162000e12565b50919998505050505050505050565b634e487b7160e01b600052603260045260246000fd5b8082018082111562000f3a57634e487b7160e01b600052601160045260246000fd5b92915050565b60c08152600062000f5560c083018962000c72565b828103602084015262000f69818962000c72565b6001600160a01b038881166040860152871660608501528381036080850152905062000f96818662000d2c565b905082810360a084015262000fac818562000db5565b9998505050505050505050565b600181811c9082168062000fce57607f821691505b60208210810362000fef57634e487b7160e01b600052602260045260246000fd5b50919050565b601f82111562001045576000816000526020600020601f850160051c81016020861015620010205750805b601f850160051c820191505b8181101562001041578281556001016200102c565b5050505b505050565b815167ffffffffffffffff8111156200106757620010676200098f565b6200107f8162001078845462000fb9565b8462000ff5565b602080601f831160018114620010b757600084156200109e5750858301515b600019600386901b1c1916600185901b17855562001041565b600085815260208120601f198616915b82811015620010e857888601518255948401946001909101908401620010c7565b5085821015620011075787850151600019600388901b60f8161c191681555b5050505050600190811b01905550565b6080815260006200112c608083018762000c72565b828103602084015262001140818762000c72565b9050828103604084015262001156818662000d2c565b9050828103606084015262000cfc818562000db556fe6080604052600160075560056008553480156200001b57600080fd5b50604051620015e0380380620015e08339810160408190526200003e916200076f565b60016000819055604080516c41524b4220526573657276657360981b808252600d8083018590528351602d938190038401812080546001600160a01b0319908116732605811a8bc3971b321cde1fe8fcd280f632875e1790915592815260029181018290528451908190039093018320805460ff199081166008908117909255661055510bd554d160ca1b80865260078087018990528751602797819003880181208054881673b0c712f98dae15264c8e26132bcc91c40ad4d5f917905591825281810185905287519182900387018220805484168517905566084a8865e8aa8960cb1b8083528282018a90528851928390038801832080548816735fb1616f78da7afc9ff79e0371741a747d2a7f2217905582528181018590528751918290038701822080548416601217905566109510cbd554d160ca1b8083528282018a90528851928390038801832080548816731b44f3514812d835eb1bdb0acb33d3fa3351ee4317905582528181018590528751918290038701822080548416851790556710d4d4160bd554d160c21b8083528285018a905288516028938190038401812080548916734b531a318b0e44b549f3b2f824721b3d0d51930a179055908152808501869052885190819003909201822080548416851790556610d692cbd554d160ca1b8083528282018a9052885192839003880183208054881673c32f0a9d70a34b9e7377c10fdad88512596f61ea1790558252818101859052875191829003870182208054841685179055661110524bd554d160ca1b8083528282018a905288519283900388018320805488167314866185b1962b63c3ea9e03bc1da838bab34c191790558252818101859052875191829003870182208054841685179055661155120bd554d160ca1b8083528282018a9052885192839003880183208054881673694aa1769357215de4fac081bf1f309adc3253061790558252818101859052875191829003870182208054841685179055661155548bd554d160ca1b80835282820199909952875191829003870182208054909616731a81afb8146aeffcfc5e50e8479e826e7d55b910179095559687529286019190915292519384900390910190922080549092161790558051825114620003d95760405162461bcd60e51b815260206004820152602a60248201527f546f6b656e2061646472657373657320616e6420726174696f73206c656e67746044820152690d040dad2e6dac2e8c6d60b31b606482015260840160405180910390fd5b600b80546001600160a01b038087166001600160a01b031992831617909255600c8054928616929091169190911790556009620004178782620008dd565b50600a620004268682620008dd565b5081516200043c906003906020850190620004a4565b508051620004529060049060208401906200050e565b50836001600160a01b03167ff3bfd287a6c4aeb2fee8ee502ea9001abd8d43f3262fdc2d2ef138950e1f77ce878760405162000490929190620009d7565b60405180910390a250505050505062000a09565b828054828255906000526020600020908101928215620004fc579160200282015b82811115620004fc57825182546001600160a01b0319166001600160a01b03909116178255602090920191600190910190620004c5565b506200050a9291506200054c565b5090565b828054828255906000526020600020908101928215620004fc579160200282015b82811115620004fc5782518255916020019190600101906200052f565b5b808211156200050a57600081556001016200054d565b634e487b7160e01b600052604160045260246000fd5b604051601f8201601f191681016001600160401b0381118282101715620005a457620005a462000563565b604052919050565b60005b83811015620005c9578181015183820152602001620005af565b50506000910152565b600082601f830112620005e457600080fd5b81516001600160401b0381111562000600576200060062000563565b62000615601f8201601f191660200162000579565b8181528460208386010111156200062b57600080fd5b6200063e826020830160208701620005ac565b949350505050565b80516001600160a01b03811681146200065e57600080fd5b919050565b60006001600160401b038211156200067f576200067f62000563565b5060051b60200190565b600082601f8301126200069b57600080fd5b81516020620006b4620006ae8362000663565b62000579565b8083825260208201915060208460051b870101935086841115620006d757600080fd5b602086015b84811015620006fe57620006f08162000646565b8352918301918301620006dc565b509695505050505050565b600082601f8301126200071b57600080fd5b815160206200072e620006ae8362000663565b8083825260208201915060208460051b8701019350868411156200075157600080fd5b602086015b84811015620006fe578051835291830191830162000756565b60008060008060008060c087890312156200078957600080fd5b86516001600160401b0380821115620007a157600080fd5b620007af8a838b01620005d2565b97506020890151915080821115620007c657600080fd5b620007d48a838b01620005d2565b9650620007e460408a0162000646565b9550620007f460608a0162000646565b945060808901519150808211156200080b57600080fd5b620008198a838b0162000689565b935060a08901519150808211156200083057600080fd5b506200083f89828a0162000709565b9150509295509295509295565b600181811c908216806200086157607f821691505b6020821081036200088257634e487b7160e01b600052602260045260246000fd5b50919050565b601f821115620008d8576000816000526020600020601f850160051c81016020861015620008b35750805b601f850160051c820191505b81811015620008d457828155600101620008bf565b5050505b505050565b81516001600160401b03811115620008f957620008f962000563565b62000911816200090a84546200084c565b8462000888565b602080601f831160018114620009495760008415620009305750858301515b600019600386901b1c1916600185901b178555620008d4565b600085815260208120601f198616915b828110156200097a5788860151825594840194600190910190840162000959565b5085821015620009995787850151600019600388901b60f8161c191681555b5050505050600190811b01905550565b60008151808452620009c3816020860160208601620005ac565b601f01601f19169290920160200192915050565b604081526000620009ec6040830185620009a9565b828103602084015262000a008185620009a9565b95945050505050565b610bc78062000a196000396000f3fe6080604052600436106100c65760003560e01c8063b13c86a31161007f578063e66f53b711610059578063e66f53b71461021d578063ee8c24b81461023d578063f4d7eb3614610252578063f66a1b711461027257600080fd5b8063b13c86a3146101c3578063bd4efbfb146101e5578063ce525a751461020757600080fd5b806306fdde03146100d25780632a55feec146100fd5780634ed7c07d1461013d578063735de9f71461016157806395d89b4114610199578063afb21f2f146101ae57600080fd5b366100cd57005b600080fd5b3480156100de57600080fd5b506100e7610292565b6040516100f4919061078a565b60405180910390f35b34801561010957600080fd5b5061012d6101183660046107bd565b60066020526000908152604090205460ff1681565b60405190151581526020016100f4565b34801561014957600080fd5b5061015360085481565b6040519081526020016100f4565b34801561016d57600080fd5b50600d54610181906001600160a01b031681565b6040516001600160a01b0390911681526020016100f4565b3480156101a557600080fd5b506100e7610320565b6101c16101bc3660046107ed565b61032d565b005b3480156101cf57600080fd5b506101d8610474565b6040516100f49190610806565b3480156101f157600080fd5b506101fa6104cf565b6040516100f4919061084a565b34801561021357600080fd5b5061015360075481565b34801561022957600080fd5b50600b54610181906001600160a01b031681565b34801561024957600080fd5b506101fa610533565b34801561025e57600080fd5b50600c54610181906001600160a01b031681565b34801561027e57600080fd5b5061015361028d3660046108a1565b610596565b6009805461029f90610952565b80601f01602080910402602001604051908101604052809291908181526020018280546102cb90610952565b80156103185780601f106102ed57610100808354040283529160200191610318565b820191906000526020600020905b8154815290600101906020018083116102fb57829003601f168201915b505050505081565b600a805461029f90610952565b61033561067d565b80341461037f5760405162461bcd60e51b8152602060048201526014602482015273125b98dbdc9c9958dd0811551208185b5bdd5b9d60621b604482015260640160405180910390fd5b60008061038b836106a7565b600b5491935091506103a6906001600160a01b0316836106e8565b600c546103bc906001600160a01b0316826106e8565b3360009081526006602052604090205460ff1661042e576005805460018181019092557f036b6384b5eca791c62761152d0c79bb0604c104a5fb6f4eb0703f3154bb3db00180546001600160a01b031916339081179091556000908152600660205260409020805460ff191690911790555b604051838152309033907fa13f6578a5ad710e5ac3a4c7396b31b87bb22144bdc08fa1b9b0e6652ab879cb9060200160405180910390a350506104716001600055565b50565b606060036001018054806020026020016040519081016040528092919081815260200182805480156104c557602002820191906000526020600020905b8154815260200190600101908083116104b1575b5050505050905090565b606060036002018054806020026020016040519081016040528092919081815260200182805480156104c557602002820191906000526020600020905b81546001600160a01b0316815260019091019060200180831161050c575050505050905090565b606060036000018054806020026020016040519081016040528092919081815260200182805480156104c5576020028201919060005260206000209081546001600160a01b0316815260019091019060200180831161050c575050505050905090565b6000806001836040516105a9919061098c565b908152604051908190036020018120546001600160a01b031691506000906002906105d590869061098c565b908152602001604051809103902060009054906101000a900460ff1690506000826001600160a01b031663feaf968c6040518163ffffffff1660e01b815260040160a060405180830381865afa158015610633573d6000803e3d6000fd5b505050506040513d601f19601f8201168201806040525081019061065791906109c7565b50505091505081600a61066a9190610b13565b6106749082610b38565b95945050505050565b6002600054036106a057604051633ee5aeb560e01b815260040160405180910390fd5b6002600055565b6000806064600754846106ba9190610b66565b6106c49190610b7d565b91506103e8600854846106d79190610b66565b6106e19190610b7d565b9050915091565b6040516001600160a01b0383169082156108fc029083906000818181858888f1935050505015801561071e573d6000803e3d6000fd5b50816001600160a01b03167f78786c581da76125b3c6c8a810adb3d2dab5d14b1273b8220661085f045e25cd8260405161075a91815260200190565b60405180910390a25050565b60005b83811015610781578181015183820152602001610769565b50506000910152565b60208152600082518060208401526107a9816040850160208701610766565b601f01601f19169190910160400192915050565b6000602082840312156107cf57600080fd5b81356001600160a01b03811681146107e657600080fd5b9392505050565b6000602082840312156107ff57600080fd5b5035919050565b6020808252825182820181905260009190848201906040850190845b8181101561083e57835183529284019291840191600101610822565b50909695505050505050565b6020808252825182820181905260009190848201906040850190845b8181101561083e5783516001600160a01b031683529284019291840191600101610866565b634e487b7160e01b600052604160045260246000fd5b6000602082840312156108b357600080fd5b813567ffffffffffffffff808211156108cb57600080fd5b818401915084601f8301126108df57600080fd5b8135818111156108f1576108f161088b565b604051601f8201601f19908116603f011681019083821181831017156109195761091961088b565b8160405282815287602084870101111561093257600080fd5b826020860160208301376000928101602001929092525095945050505050565b600181811c9082168061096657607f821691505b60208210810361098657634e487b7160e01b600052602260045260246000fd5b50919050565b6000825161099e818460208701610766565b9190910192915050565b805169ffffffffffffffffffff811681146109c257600080fd5b919050565b600080600080600060a086880312156109df57600080fd5b6109e8866109a8565b9450602086015193506040860151925060608601519150610a0b608087016109a8565b90509295509295909350565b634e487b7160e01b600052601160045260246000fd5b600181815b80851115610a68578160001904821115610a4e57610a4e610a17565b80851615610a5b57918102915b93841c9390800290610a32565b509250929050565b600082610a7f57506001610b0d565b81610a8c57506000610b0d565b8160018114610aa25760028114610aac57610ac8565b6001915050610b0d565b60ff841115610abd57610abd610a17565b50506001821b610b0d565b5060208310610133831016604e8410600b8410161715610aeb575081810a610b0d565b610af58383610a2d565b8060001904821115610b0957610b09610a17565b0290505b92915050565b60006107e660ff841683610a70565b634e487b7160e01b600052601260045260246000fd5b600082610b4757610b47610b22565b600160ff1b821460001984141615610b6157610b61610a17565b500590565b8082028115828204841417610b0d57610b0d610a17565b600082610b8c57610b8c610b22565b50049056fea264697066735822122060dd99da3eb696c25020d2131f1805b0fa85494cfb458df7064878385a8ac8cf64736f6c63430008180033a2646970667358221220ee7a7aa6a729217cd6a6136bbdb82eb2501ee3a84339492ab4b218f82add6d5a64736f6c63430008180033",
  "linkReferences": {},
  "deployedLinkReferences": {}
}